{
  "contractName": "HelloWorld",
  "abi": [
    {
      "constant": true,
      "inputs": [],
      "name": "message",
      "outputs": [
        {
          "internalType": "string",
          "name": "",
          "type": "string"
        }
      ],
      "payable": false,
      "stateMutability": "view",
      "type": "function"
    },
    {
      "constant": true,
      "inputs": [
        {
          "internalType": "uint256",
          "name": "",
          "type": "uint256"
        }
      ],
      "name": "savedMessages",
      "outputs": [
        {
          "internalType": "uint256",
          "name": "id",
          "type": "uint256"
        },
        {
          "internalType": "address",
          "name": "messenger",
          "type": "address"
        },
        {
          "internalType": "string",
          "name": "message",
          "type": "string"
        }
      ],
      "payable": false,
      "stateMutability": "view",
      "type": "function"
    },
    {
      "constant": false,
      "inputs": [
        {
          "internalType": "string",
          "name": "newMessage",
          "type": "string"
        }
      ],
      "name": "setMessage",
      "outputs": [],
      "payable": false,
      "stateMutability": "nonpayable",
      "type": "function"
    },
    {
      "constant": true,
      "inputs": [],
      "name": "getMessage",
      "outputs": [
        {
          "components": [
            {
              "internalType": "uint256",
              "name": "id",
              "type": "uint256"
            },
            {
              "internalType": "address",
              "name": "messenger",
              "type": "address"
            },
            {
              "internalType": "string",
              "name": "message",
              "type": "string"
            }
          ],
          "internalType": "struct HelloWorld.MessageList[]",
          "name": "",
          "type": "tuple[]"
        }
      ],
      "payable": false,
      "stateMutability": "view",
      "type": "function"
    }
  ],
  "bytecode": "0x60806040526040518060400160405280600b81526020017f48656c6c6f20576f726c640000000000000000000000000000000000000000008152506000908051906020019061004f929190610062565b5034801561005c57600080fd5b50610107565b828054600181600116156101000203166002900490600052602060002090601f016020900481019282601f106100a357805160ff19168380011785556100d1565b828001600101855582156100d1579182015b828111156100d05782518255916020019190600101906100b5565b5b5090506100de91906100e2565b5090565b61010491905b808211156101005760008160009055506001016100e8565b5090565b90565b610afa806101166000396000f3fe608060405234801561001057600080fd5b506004361061004c5760003560e01c8063368b8772146100515780633dea27e71461006d578063ce6d41de1461009f578063e21f37ce146100bd575b600080fd5b61006b600480360361006691908101906106df565b6100db565b005b61008760048036036100829190810190610720565b610263565b60405161009693929190610914565b60405180910390f35b6100a7610352565b6040516100b491906108d0565b60405180910390f35b6100c56104b3565b6040516100d291906108f2565b60405180910390f35b80600090805190602001906100f1929190610551565b506001604051806060016040528060018054905081526020013373ffffffffffffffffffffffffffffffffffffffff16815260200160008054600181600116156101000203166002900480601f0160208091040260200160405190810160405280929190818152602001828054600181600116156101000203166002900480156101bc5780601f10610191576101008083540402835291602001916101bc565b820191906000526020600020905b81548152906001019060200180831161019f57829003601f168201915b5050505050815250908060018154018082558091505090600182039060005260206000209060030201600090919290919091506000820151816000015560208201518160010160006101000a81548173ffffffffffffffffffffffffffffffffffffffff021916908373ffffffffffffffffffffffffffffffffffffffff160217905550604082015181600201908051906020019061025c9291906105d1565b5050505050565b6001818154811061027057fe5b90600052602060002090600302016000915090508060000154908060010160009054906101000a900473ffffffffffffffffffffffffffffffffffffffff1690806002018054600181600116156101000203166002900480601f0160208091040260200160405190810160405280929190818152602001828054600181600116156101000203166002900480156103485780601f1061031d57610100808354040283529160200191610348565b820191906000526020600020905b81548152906001019060200180831161032b57829003601f168201915b5050505050905083565b60606001805480602002602001604051908101604052809291908181526020016000905b828210156104aa5783829060005260206000209060030201604051806060016040529081600082015481526020016001820160009054906101000a900473ffffffffffffffffffffffffffffffffffffffff1673ffffffffffffffffffffffffffffffffffffffff1673ffffffffffffffffffffffffffffffffffffffff168152602001600282018054600181600116156101000203166002900480601f0160208091040260200160405190810160405280929190818152602001828054600181600116156101000203166002900480156104925780601f1061046757610100808354040283529160200191610492565b820191906000526020600020905b81548152906001019060200180831161047557829003601f168201915b50505050508152505081526020019060010190610376565b50505050905090565b60008054600181600116156101000203166002900480601f0160208091040260200160405190810160405280929190818152602001828054600181600116156101000203166002900480156105495780601f1061051e57610100808354040283529160200191610549565b820191906000526020600020905b81548152906001019060200180831161052c57829003601f168201915b505050505081565b828054600181600116156101000203166002900490600052602060002090601f016020900481019282601f1061059257805160ff19168380011785556105c0565b828001600101855582156105c0579182015b828111156105bf5782518255916020019190600101906105a4565b5b5090506105cd9190610651565b5090565b828054600181600116156101000203166002900490600052602060002090601f016020900481019282601f1061061257805160ff1916838001178555610640565b82800160010185558215610640579182015b8281111561063f578251825591602001919060010190610624565b5b50905061064d9190610651565b5090565b61067391905b8082111561066f576000816000905550600101610657565b5090565b90565b600082601f83011261068757600080fd5b813561069a6106958261097f565b610952565b915080825260208301602083018583830111156106b657600080fd5b6106c1838284610a4d565b50505092915050565b6000813590506106d981610aa0565b92915050565b6000602082840312156106f157600080fd5b600082013567ffffffffffffffff81111561070b57600080fd5b61071784828501610676565b91505092915050565b60006020828403121561073257600080fd5b6000610740848285016106ca565b91505092915050565b60006107558383610862565b905092915050565b61076681610a11565b82525050565b61077581610a11565b82525050565b6000610786826109bb565b61079081856109de565b9350836020820285016107a2856109ab565b8060005b858110156107de57848403895281516107bf8582610749565b94506107ca836109d1565b925060208a019950506001810190506107a6565b50829750879550505050505092915050565b60006107fb826109c6565b61080581856109ef565b9350610815818560208601610a5c565b61081e81610a8f565b840191505092915050565b6000610834826109c6565b61083e8185610a00565b935061084e818560208601610a5c565b61085781610a8f565b840191505092915050565b600060608301600083015161087a60008601826108b2565b50602083015161088d602086018261075d565b50604083015184820360408601526108a582826107f0565b9150508091505092915050565b6108bb81610a43565b82525050565b6108ca81610a43565b82525050565b600060208201905081810360008301526108ea818461077b565b905092915050565b6000602082019050818103600083015261090c8184610829565b905092915050565b600060608201905061092960008301866108c1565b610936602083018561076c565b81810360408301526109488184610829565b9050949350505050565b6000604051905081810181811067ffffffffffffffff8211171561097557600080fd5b8060405250919050565b600067ffffffffffffffff82111561099657600080fd5b601f19601f8301169050602081019050919050565b6000819050602082019050919050565b600081519050919050565b600081519050919050565b6000602082019050919050565b600082825260208201905092915050565b600082825260208201905092915050565b600082825260208201905092915050565b6000610a1c82610a23565b9050919050565b600073ffffffffffffffffffffffffffffffffffffffff82169050919050565b6000819050919050565b82818337600083830152505050565b60005b83811015610a7a578082015181840152602081019050610a5f565b83811115610a89576000848401525b50505050565b6000601f19601f8301169050919050565b610aa981610a43565b8114610ab457600080fd5b5056fea365627a7a72315820d6f5b823a20bdfbf7ead3c3fb2654f92e4273ca6d70319d6ae5c94cfdc1eeb156c6578706572696d656e74616cf564736f6c63430005100040",
  "source": "pragma solidity >=0.5.16;\r\npragma experimental ABIEncoderV2;\r\n\r\ncontract HelloWorld {\r\n    string public message = \"Hello World\";\r\n    MessageList[] public savedMessages;\r\n\r\n    struct MessageList {\r\n        uint id;\r\n        address messenger;\r\n        string message;\r\n    }\r\n\r\n    function setMessage(string memory newMessage) public {\r\n        message = newMessage;\r\n        savedMessages.push(MessageList(savedMessages.length, msg.sender, message));\r\n       \r\n    }\r\n\r\n    function getMessage() public view returns(MessageList[] memory) {\r\n        return savedMessages;\r\n    }\r\n}",
  "sourcePath": "C:/Users/K-Rex/Desktop/dapp/dAppTemplate/src/contracts/HelloWorld.sol",
  "compiler": {
    "name": "solc",
    "version": "0.5.16+commit.9c3226ce.Emscripten.clang"
  },
  "schemaVersion": "3.2.3",
  "updatedAt": "2020-12-20T21:27:46.414Z",
  "networkType": "ethereum",
  "devdoc": {
    "methods": {}
  },
  "userdoc": {
    "methods": {}
  }
}